:020000020000FC
:10000000BFEF71EF40E131E020E15098589A5198EC
:10001000599A10E10FEF07B901E1489B0E941A00BD
:10002000499B0E94380008B90E94540018B90E94E8
:100030005E00F3CF220FA8F0022B122B08B90E940A
:10004000540018B90E945E000E94690008B90E941D
:10005000540018B90E945E00489BF8CF0E946900C6
:10006000089560EE061B10E120E10E946900EECFCA
:100070000E946900330F431719F4072331E003C0CE
:10008000032B0E94690008B90E94540018B90E940D
:100090005E00499BF8CF08B90E94540018B90E942D
:1000A0005E000E9469000895C0915F00CF93502FB9
:1000B0005A95F1F7CF91C0935F000895C0915F000A
:1000C000CF93502FB51BBA95F1F7CF91C0935F0036
:1000D0000895802F912FA22F82E090E0A0E0AA95B2
:1000E000F1F79A9508B90E94540018B9C1F78A959A
:0C00F00008B90E94540018B991F7089557
:00000001FF
